{
  "contractName": "MarketPlace",
  "abi": [
    {
      "constant": true,
      "inputs": [
        {
          "name": "",
          "type": "address"
        },
        {
          "name": "",
          "type": "uint256"
        }
      ],
      "name": "StoreOwnerMap",
      "outputs": [
        {
          "name": "",
          "type": "uint256"
        }
      ],
      "payable": false,
      "stateMutability": "view",
      "type": "function"
    },
    {
      "constant": true,
      "inputs": [
        {
          "name": "",
          "type": "address"
        },
        {
          "name": "",
          "type": "uint256"
        }
      ],
      "name": "OrderOwnerMap",
      "outputs": [
        {
          "name": "",
          "type": "uint256"
        }
      ],
      "payable": false,
      "stateMutability": "view",
      "type": "function"
    },
    {
      "constant": true,
      "inputs": [
        {
          "name": "",
          "type": "uint256"
        }
      ],
      "name": "users",
      "outputs": [
        {
          "name": "uid",
          "type": "uint256"
        },
        {
          "name": "user",
          "type": "address"
        },
        {
          "name": "username",
          "type": "string"
        },
        {
          "name": "usertype",
          "type": "uint8"
        },
        {
          "name": "amount",
          "type": "uint256"
        },
        {
          "name": "userstatus",
          "type": "uint8"
        }
      ],
      "payable": false,
      "stateMutability": "view",
      "type": "function"
    },
    {
      "constant": true,
      "inputs": [
        {
          "name": "",
          "type": "address"
        },
        {
          "name": "",
          "type": "uint256"
        }
      ],
      "name": "ProductOwnerMap",
      "outputs": [
        {
          "name": "",
          "type": "uint256"
        }
      ],
      "payable": false,
      "stateMutability": "view",
      "type": "function"
    },
    {
      "constant": false,
      "inputs": [],
      "name": "renounceOwnership",
      "outputs": [],
      "payable": false,
      "stateMutability": "nonpayable",
      "type": "function"
    },
    {
      "constant": true,
      "inputs": [
        {
          "name": "",
          "type": "uint256"
        }
      ],
      "name": "products",
      "outputs": [
        {
          "name": "pid",
          "type": "uint256"
        },
        {
          "name": "owner",
          "type": "address"
        },
        {
          "name": "name",
          "type": "string"
        },
        {
          "name": "description",
          "type": "string"
        },
        {
          "name": "imgsrc",
          "type": "string"
        }
      ],
      "payable": false,
      "stateMutability": "view",
      "type": "function"
    },
    {
      "constant": true,
      "inputs": [
        {
          "name": "",
          "type": "uint256"
        },
        {
          "name": "",
          "type": "uint256"
        }
      ],
      "name": "StoreProductMap",
      "outputs": [
        {
          "name": "",
          "type": "uint256"
        }
      ],
      "payable": false,
      "stateMutability": "view",
      "type": "function"
    },
    {
      "constant": true,
      "inputs": [],
      "name": "owner",
      "outputs": [
        {
          "name": "",
          "type": "address"
        }
      ],
      "payable": false,
      "stateMutability": "view",
      "type": "function"
    },
    {
      "constant": true,
      "inputs": [
        {
          "name": "",
          "type": "uint256"
        }
      ],
      "name": "orders",
      "outputs": [
        {
          "name": "oid",
          "type": "uint256"
        },
        {
          "name": "sid",
          "type": "uint256"
        },
        {
          "name": "spid",
          "type": "uint256"
        },
        {
          "name": "pid",
          "type": "uint256"
        },
        {
          "name": "price",
          "type": "uint256"
        },
        {
          "name": "qty",
          "type": "uint256"
        }
      ],
      "payable": false,
      "stateMutability": "view",
      "type": "function"
    },
    {
      "constant": true,
      "inputs": [],
      "name": "creationTime",
      "outputs": [
        {
          "name": "",
          "type": "uint256"
        }
      ],
      "payable": false,
      "stateMutability": "view",
      "type": "function"
    },
    {
      "constant": true,
      "inputs": [
        {
          "name": "",
          "type": "uint256"
        }
      ],
      "name": "stores",
      "outputs": [
        {
          "name": "sid",
          "type": "uint256"
        },
        {
          "name": "owner",
          "type": "address"
        },
        {
          "name": "name",
          "type": "string"
        },
        {
          "name": "description",
          "type": "string"
        },
        {
          "name": "amount",
          "type": "uint256"
        },
        {
          "name": "imgsrc",
          "type": "string"
        }
      ],
      "payable": false,
      "stateMutability": "view",
      "type": "function"
    },
    {
      "constant": false,
      "inputs": [
        {
          "name": "_newOwner",
          "type": "address"
        }
      ],
      "name": "transferOwnership",
      "outputs": [],
      "payable": false,
      "stateMutability": "nonpayable",
      "type": "function"
    },
    {
      "constant": true,
      "inputs": [
        {
          "name": "",
          "type": "address"
        },
        {
          "name": "",
          "type": "uint256"
        }
      ],
      "name": "UserOwnerMap",
      "outputs": [
        {
          "name": "",
          "type": "uint256"
        }
      ],
      "payable": false,
      "stateMutability": "view",
      "type": "function"
    },
    {
      "constant": true,
      "inputs": [
        {
          "name": "",
          "type": "uint256"
        }
      ],
      "name": "storeproducts",
      "outputs": [
        {
          "name": "spid",
          "type": "uint256"
        },
        {
          "name": "sid",
          "type": "uint256"
        },
        {
          "name": "pid",
          "type": "uint256"
        },
        {
          "name": "price",
          "type": "uint256"
        },
        {
          "name": "qty_avail",
          "type": "uint256"
        },
        {
          "name": "status",
          "type": "uint8"
        }
      ],
      "payable": false,
      "stateMutability": "view",
      "type": "function"
    },
    {
      "inputs": [],
      "payable": false,
      "stateMutability": "nonpayable",
      "type": "constructor"
    },
    {
      "anonymous": false,
      "inputs": [
        {
          "indexed": false,
          "name": "oid",
          "type": "uint256"
        },
        {
          "indexed": false,
          "name": "uid",
          "type": "uint256"
        },
        {
          "indexed": false,
          "name": "sid",
          "type": "uint256"
        },
        {
          "indexed": false,
          "name": "pid",
          "type": "uint256"
        },
        {
          "indexed": false,
          "name": "price",
          "type": "uint256"
        },
        {
          "indexed": false,
          "name": "qty",
          "type": "uint256"
        },
        {
          "indexed": false,
          "name": "timestamp",
          "type": "uint256"
        }
      ],
      "name": "orderCreated",
      "type": "event"
    },
    {
      "anonymous": false,
      "inputs": [
        {
          "indexed": false,
          "name": "pid",
          "type": "uint256"
        },
        {
          "indexed": false,
          "name": "owner",
          "type": "address"
        },
        {
          "indexed": false,
          "name": "name",
          "type": "string"
        },
        {
          "indexed": false,
          "name": "description",
          "type": "string"
        },
        {
          "indexed": false,
          "name": "imgsrc",
          "type": "string"
        },
        {
          "indexed": false,
          "name": "timestamp",
          "type": "uint256"
        }
      ],
      "name": "productCreated",
      "type": "event"
    },
    {
      "anonymous": false,
      "inputs": [
        {
          "indexed": false,
          "name": "pid",
          "type": "uint256"
        },
        {
          "indexed": false,
          "name": "name",
          "type": "string"
        },
        {
          "indexed": false,
          "name": "description",
          "type": "string"
        },
        {
          "indexed": false,
          "name": "imgsrc",
          "type": "string"
        },
        {
          "indexed": false,
          "name": "timestamp",
          "type": "uint256"
        }
      ],
      "name": "productUpdated",
      "type": "event"
    },
    {
      "anonymous": false,
      "inputs": [
        {
          "indexed": false,
          "name": "sid",
          "type": "uint256"
        },
        {
          "indexed": false,
          "name": "owner",
          "type": "address"
        },
        {
          "indexed": false,
          "name": "name",
          "type": "string"
        },
        {
          "indexed": false,
          "name": "description",
          "type": "string"
        },
        {
          "indexed": false,
          "name": "amount",
          "type": "uint256"
        },
        {
          "indexed": false,
          "name": "imgsrc",
          "type": "string"
        },
        {
          "indexed": false,
          "name": "timestamp",
          "type": "uint256"
        }
      ],
      "name": "storeCreated",
      "type": "event"
    },
    {
      "anonymous": false,
      "inputs": [
        {
          "indexed": false,
          "name": "sid",
          "type": "uint256"
        },
        {
          "indexed": false,
          "name": "name",
          "type": "string"
        },
        {
          "indexed": false,
          "name": "description",
          "type": "string"
        },
        {
          "indexed": false,
          "name": "imgsrc",
          "type": "string"
        },
        {
          "indexed": false,
          "name": "timestamp",
          "type": "uint256"
        }
      ],
      "name": "storeUpdated",
      "type": "event"
    },
    {
      "anonymous": false,
      "inputs": [
        {
          "indexed": false,
          "name": "spid",
          "type": "uint256"
        },
        {
          "indexed": false,
          "name": "sid",
          "type": "uint256"
        },
        {
          "indexed": false,
          "name": "pid",
          "type": "uint256"
        },
        {
          "indexed": false,
          "name": "price",
          "type": "uint256"
        },
        {
          "indexed": false,
          "name": "qty_avail",
          "type": "uint256"
        },
        {
          "indexed": false,
          "name": "timestamp",
          "type": "uint256"
        }
      ],
      "name": "storeproductCreated",
      "type": "event"
    },
    {
      "anonymous": false,
      "inputs": [
        {
          "indexed": false,
          "name": "spid",
          "type": "uint256"
        },
        {
          "indexed": false,
          "name": "sid",
          "type": "uint256"
        },
        {
          "indexed": false,
          "name": "pid",
          "type": "uint256"
        },
        {
          "indexed": false,
          "name": "price",
          "type": "uint256"
        },
        {
          "indexed": false,
          "name": "qty_avail",
          "type": "uint256"
        },
        {
          "indexed": false,
          "name": "status",
          "type": "uint256"
        },
        {
          "indexed": false,
          "name": "timestamp",
          "type": "uint256"
        }
      ],
      "name": "storeproductUpdated",
      "type": "event"
    },
    {
      "anonymous": false,
      "inputs": [
        {
          "indexed": false,
          "name": "uid",
          "type": "uint256"
        },
        {
          "indexed": false,
          "name": "user",
          "type": "address"
        },
        {
          "indexed": false,
          "name": "username",
          "type": "string"
        },
        {
          "indexed": false,
          "name": "usertype",
          "type": "uint8"
        },
        {
          "indexed": false,
          "name": "amount",
          "type": "uint256"
        },
        {
          "indexed": false,
          "name": "userstatus",
          "type": "uint8"
        },
        {
          "indexed": false,
          "name": "timestamp",
          "type": "uint256"
        }
      ],
      "name": "userCreated",
      "type": "event"
    },
    {
      "anonymous": false,
      "inputs": [
        {
          "indexed": false,
          "name": "uid",
          "type": "uint256"
        },
        {
          "indexed": false,
          "name": "username",
          "type": "string"
        },
        {
          "indexed": false,
          "name": "usertype",
          "type": "uint8"
        },
        {
          "indexed": false,
          "name": "userstatus",
          "type": "uint8"
        },
        {
          "indexed": false,
          "name": "timestamp",
          "type": "uint256"
        }
      ],
      "name": "userUpdated",
      "type": "event"
    },
    {
      "anonymous": false,
      "inputs": [
        {
          "indexed": true,
          "name": "previousOwner",
          "type": "address"
        }
      ],
      "name": "OwnershipRenounced",
      "type": "event"
    },
    {
      "anonymous": false,
      "inputs": [
        {
          "indexed": true,
          "name": "previousOwner",
          "type": "address"
        },
        {
          "indexed": true,
          "name": "newOwner",
          "type": "address"
        }
      ],
      "name": "OwnershipTransferred",
      "type": "event"
    },
    {
      "constant": false,
      "inputs": [],
      "name": "destroyContract",
      "outputs": [],
      "payable": false,
      "stateMutability": "nonpayable",
      "type": "function"
    },
    {
      "constant": false,
      "inputs": [
        {
          "name": "_owner",
          "type": "address"
        },
        {
          "name": "_sid",
          "type": "uint256"
        },
        {
          "name": "_spid",
          "type": "uint256"
        },
        {
          "name": "_pid",
          "type": "uint256"
        },
        {
          "name": "_price",
          "type": "uint256"
        },
        {
          "name": "_qty",
          "type": "uint256"
        }
      ],
      "name": "createOrder",
      "outputs": [
        {
          "name": "id",
          "type": "uint256"
        }
      ],
      "payable": false,
      "stateMutability": "nonpayable",
      "type": "function"
    },
    {
      "constant": false,
      "inputs": [
        {
          "name": "_owner",
          "type": "address"
        },
        {
          "name": "_name",
          "type": "string"
        },
        {
          "name": "_description",
          "type": "string"
        },
        {
          "name": "_imgsrc",
          "type": "string"
        }
      ],
      "name": "createProduct",
      "outputs": [
        {
          "name": "id",
          "type": "uint256"
        }
      ],
      "payable": false,
      "stateMutability": "nonpayable",
      "type": "function"
    },
    {
      "constant": false,
      "inputs": [
        {
          "name": "_owner",
          "type": "address"
        },
        {
          "name": "_name",
          "type": "string"
        },
        {
          "name": "_description",
          "type": "string"
        },
        {
          "name": "_amount",
          "type": "uint256"
        },
        {
          "name": "_imgsrc",
          "type": "string"
        }
      ],
      "name": "createStore",
      "outputs": [
        {
          "name": "id",
          "type": "uint256"
        }
      ],
      "payable": false,
      "stateMutability": "nonpayable",
      "type": "function"
    },
    {
      "constant": false,
      "inputs": [
        {
          "name": "_sid",
          "type": "uint256"
        },
        {
          "name": "_pid",
          "type": "uint256"
        },
        {
          "name": "_price",
          "type": "uint256"
        },
        {
          "name": "_qty_avail",
          "type": "uint256"
        },
        {
          "name": "_status",
          "type": "uint8"
        }
      ],
      "name": "createStoreProduct",
      "outputs": [
        {
          "name": "id",
          "type": "uint256"
        }
      ],
      "payable": false,
      "stateMutability": "nonpayable",
      "type": "function"
    },
    {
      "constant": false,
      "inputs": [
        {
          "name": "_user",
          "type": "address"
        },
        {
          "name": "_username",
          "type": "string"
        },
        {
          "name": "_usertype",
          "type": "uint8"
        },
        {
          "name": "_amount",
          "type": "uint256"
        },
        {
          "name": "_userstatus",
          "type": "uint8"
        }
      ],
      "name": "createUser",
      "outputs": [
        {
          "name": "id",
          "type": "uint256"
        }
      ],
      "payable": false,
      "stateMutability": "nonpayable",
      "type": "function"
    },
    {
      "constant": true,
      "inputs": [
        {
          "name": "idx",
          "type": "uint256"
        }
      ],
      "name": "getUser",
      "outputs": [
        {
          "name": "",
          "type": "uint256"
        },
        {
          "name": "",
          "type": "address"
        },
        {
          "name": "",
          "type": "string"
        },
        {
          "name": "",
          "type": "uint8"
        },
        {
          "name": "",
          "type": "uint256"
        },
        {
          "name": "",
          "type": "uint8"
        }
      ],
      "payable": false,
      "stateMutability": "view",
      "type": "function"
    },
    {
      "constant": true,
      "inputs": [],
      "name": "getUserCount",
      "outputs": [
        {
          "name": "",
          "type": "uint256"
        }
      ],
      "payable": false,
      "stateMutability": "view",
      "type": "function"
    },
    {
      "constant": true,
      "inputs": [
        {
          "name": "adr",
          "type": "address"
        }
      ],
      "name": "getUserType",
      "outputs": [
        {
          "name": "",
          "type": "uint8"
        }
      ],
      "payable": false,
      "stateMutability": "view",
      "type": "function"
    },
    {
      "constant": true,
      "inputs": [
        {
          "name": "idx",
          "type": "uint256"
        }
      ],
      "name": "getOrder",
      "outputs": [
        {
          "name": "",
          "type": "uint256"
        },
        {
          "name": "",
          "type": "uint256"
        },
        {
          "name": "",
          "type": "uint256"
        },
        {
          "name": "",
          "type": "uint256"
        },
        {
          "name": "",
          "type": "uint256"
        },
        {
          "name": "",
          "type": "uint256"
        }
      ],
      "payable": false,
      "stateMutability": "view",
      "type": "function"
    },
    {
      "constant": true,
      "inputs": [],
      "name": "getOrderCount",
      "outputs": [
        {
          "name": "",
          "type": "uint256"
        }
      ],
      "payable": false,
      "stateMutability": "view",
      "type": "function"
    },
    {
      "constant": true,
      "inputs": [
        {
          "name": "idx",
          "type": "uint256"
        }
      ],
      "name": "getProduct",
      "outputs": [
        {
          "name": "",
          "type": "uint256"
        },
        {
          "name": "",
          "type": "address"
        },
        {
          "name": "",
          "type": "string"
        },
        {
          "name": "",
          "type": "string"
        },
        {
          "name": "",
          "type": "string"
        }
      ],
      "payable": false,
      "stateMutability": "view",
      "type": "function"
    },
    {
      "constant": true,
      "inputs": [],
      "name": "getProductCount",
      "outputs": [
        {
          "name": "",
          "type": "uint256"
        }
      ],
      "payable": false,
      "stateMutability": "view",
      "type": "function"
    },
    {
      "constant": true,
      "inputs": [
        {
          "name": "_owner",
          "type": "address"
        }
      ],
      "name": "getProductCountForOwner",
      "outputs": [
        {
          "name": "",
          "type": "uint256"
        }
      ],
      "payable": false,
      "stateMutability": "view",
      "type": "function"
    },
    {
      "constant": true,
      "inputs": [
        {
          "name": "_owner",
          "type": "address"
        },
        {
          "name": "idx",
          "type": "uint256"
        }
      ],
      "name": "getProductForOwner",
      "outputs": [
        {
          "name": "",
          "type": "uint256"
        },
        {
          "name": "",
          "type": "address"
        },
        {
          "name": "",
          "type": "string"
        },
        {
          "name": "",
          "type": "string"
        },
        {
          "name": "",
          "type": "string"
        }
      ],
      "payable": false,
      "stateMutability": "view",
      "type": "function"
    },
    {
      "constant": true,
      "inputs": [
        {
          "name": "idx",
          "type": "uint256"
        }
      ],
      "name": "getStore",
      "outputs": [
        {
          "name": "",
          "type": "uint256"
        },
        {
          "name": "",
          "type": "address"
        },
        {
          "name": "",
          "type": "string"
        },
        {
          "name": "",
          "type": "string"
        },
        {
          "name": "",
          "type": "uint256"
        },
        {
          "name": "",
          "type": "string"
        }
      ],
      "payable": false,
      "stateMutability": "view",
      "type": "function"
    },
    {
      "constant": true,
      "inputs": [],
      "name": "getStoreCount",
      "outputs": [
        {
          "name": "",
          "type": "uint256"
        }
      ],
      "payable": false,
      "stateMutability": "view",
      "type": "function"
    },
    {
      "constant": true,
      "inputs": [
        {
          "name": "_owner",
          "type": "address"
        }
      ],
      "name": "getStoreCountForOwner",
      "outputs": [
        {
          "name": "",
          "type": "uint256"
        }
      ],
      "payable": false,
      "stateMutability": "view",
      "type": "function"
    },
    {
      "constant": true,
      "inputs": [
        {
          "name": "_owner",
          "type": "address"
        },
        {
          "name": "idx",
          "type": "uint256"
        }
      ],
      "name": "getStoreForOwner",
      "outputs": [
        {
          "name": "",
          "type": "uint256"
        },
        {
          "name": "",
          "type": "address"
        },
        {
          "name": "",
          "type": "string"
        },
        {
          "name": "",
          "type": "string"
        },
        {
          "name": "",
          "type": "uint256"
        },
        {
          "name": "",
          "type": "string"
        }
      ],
      "payable": false,
      "stateMutability": "view",
      "type": "function"
    },
    {
      "constant": true,
      "inputs": [
        {
          "name": "idx",
          "type": "uint256"
        }
      ],
      "name": "getStoreProduct",
      "outputs": [
        {
          "name": "",
          "type": "uint256"
        },
        {
          "name": "",
          "type": "uint256"
        },
        {
          "name": "",
          "type": "uint256"
        },
        {
          "name": "",
          "type": "uint256"
        },
        {
          "name": "",
          "type": "uint256"
        },
        {
          "name": "",
          "type": "uint8"
        }
      ],
      "payable": false,
      "stateMutability": "view",
      "type": "function"
    },
    {
      "constant": true,
      "inputs": [],
      "name": "getStoreProductCount",
      "outputs": [
        {
          "name": "",
          "type": "uint256"
        }
      ],
      "payable": false,
      "stateMutability": "view",
      "type": "function"
    },
    {
      "constant": true,
      "inputs": [
        {
          "name": "_sid",
          "type": "uint256"
        }
      ],
      "name": "getStoreProductCountForStore",
      "outputs": [
        {
          "name": "",
          "type": "uint256"
        }
      ],
      "payable": false,
      "stateMutability": "view",
      "type": "function"
    },
    {
      "constant": true,
      "inputs": [
        {
          "name": "_sid",
          "type": "uint256"
        },
        {
          "name": "_idx",
          "type": "uint256"
        }
      ],
      "name": "getStoreProductForStore",
      "outputs": [
        {
          "name": "",
          "type": "uint256"
        },
        {
          "name": "",
          "type": "uint256"
        },
        {
          "name": "",
          "type": "uint256"
        },
        {
          "name": "",
          "type": "uint256"
        },
        {
          "name": "",
          "type": "uint256"
        },
        {
          "name": "",
          "type": "uint256"
        }
      ],
      "payable": false,
      "stateMutability": "view",
      "type": "function"
    },
    {
      "constant": false,
      "inputs": [
        {
          "name": "_user",
          "type": "address"
        },
        {
          "name": "_username",
          "type": "string"
        }
      ],
      "name": "register",
      "outputs": [
        {
          "name": "id",
          "type": "uint256"
        }
      ],
      "payable": false,
      "stateMutability": "nonpayable",
      "type": "function"
    },
    {
      "constant": false,
      "inputs": [
        {
          "name": "sid",
          "type": "uint256"
        },
        {
          "name": "spid",
          "type": "uint256"
        },
        {
          "name": "pid",
          "type": "uint256"
        },
        {
          "name": "qty",
          "type": "uint256"
        }
      ],
      "name": "sellProduct",
      "outputs": [
        {
          "name": "",
          "type": "uint256"
        }
      ],
      "payable": true,
      "stateMutability": "payable",
      "type": "function"
    },
    {
      "constant": false,
      "inputs": [
        {
          "name": "_pid",
          "type": "uint256"
        },
        {
          "name": "_name",
          "type": "string"
        },
        {
          "name": "_description",
          "type": "string"
        },
        {
          "name": "_imgsrc",
          "type": "string"
        }
      ],
      "name": "updateProduct",
      "outputs": [
        {
          "name": "success",
          "type": "bool"
        }
      ],
      "payable": false,
      "stateMutability": "nonpayable",
      "type": "function"
    },
    {
      "constant": false,
      "inputs": [
        {
          "name": "_sid",
          "type": "uint256"
        },
        {
          "name": "_storename",
          "type": "string"
        },
        {
          "name": "_description",
          "type": "string"
        },
        {
          "name": "_imgsrc",
          "type": "string"
        }
      ],
      "name": "updateStore",
      "outputs": [
        {
          "name": "success",
          "type": "bool"
        }
      ],
      "payable": false,
      "stateMutability": "nonpayable",
      "type": "function"
    },
    {
      "constant": false,
      "inputs": [
        {
          "name": "_spid",
          "type": "uint256"
        },
        {
          "name": "_sid",
          "type": "uint256"
        },
        {
          "name": "_pid",
          "type": "uint256"
        },
        {
          "name": "_price",
          "type": "uint256"
        },
        {
          "name": "_qty_avail",
          "type": "uint256"
        },
        {
          "name": "_status",
          "type": "uint8"
        }
      ],
      "name": "updateStoreProduct",
      "outputs": [
        {
          "name": "success",
          "type": "bool"
        }
      ],
      "payable": false,
      "stateMutability": "nonpayable",
      "type": "function"
    },
    {
      "constant": false,
      "inputs": [
        {
          "name": "_uid",
          "type": "uint256"
        },
        {
          "name": "_username",
          "type": "string"
        },
        {
          "name": "_usertype",
          "type": "uint8"
        },
        {
          "name": "_userstatus",
          "type": "uint8"
        }
      ],
      "name": "updateUser",
      "outputs": [
        {
          "name": "success",
          "type": "bool"
        }
      ],
      "payable": false,
      "stateMutability": "nonpayable",
      "type": "function"
    },
    {
      "constant": false,
      "inputs": [
        {
          "name": "sid",
          "type": "uint256"
        },
        {
          "name": "amount",
          "type": "uint256"
        }
      ],
      "name": "withdraw",
      "outputs": [
        {
          "name": "success",
          "type": "bool"
        }
      ],
      "payable": true,
      "stateMutability": "payable",
      "type": "function"
    }
  ],
  "bytecode": "0x6080604052426001553480156200001557600080fd5b50336000806101000a81548173ffffffffffffffffffffffffffffffffffffffff021916908373ffffffffffffffffffffffffffffffffffffffff16021790555033600260006101000a81548173ffffffffffffffffffffffffffffffffffffffff021916908373ffffffffffffffffffffffffffffffffffffffff160217905550620000ec336040805190810160405280600581526020017f41646d696e0000000000000000000000000000000000000000000000000000008152506000806000620000f3640100000000026401000000009004565b50620006cf565b6000806000600460008973ffffffffffffffffffffffffffffffffffffffff1673ffffffffffffffffffffffffffffffffffffffff168152602001908152602001600020805490501115620001d6576040517f08c379a000000000000000000000000000000000000000000000000000000000815260040180806020018281038252602a8152602001807f54686973206164647265737320697320616c726561647920612072656769737481526020017f6572656420757365722e0000000000000000000000000000000000000000000081525060400191505060405180910390fd5b60098054809190600101620001ec91906200050c565b9150600982815481101515620001fe57fe5b90600052602060002090600602019050868160010160006101000a81548173ffffffffffffffffffffffffffffffffffffffff021916908373ffffffffffffffffffffffffffffffffffffffff1602179055508460ff1660018111156200026157fe5b8160030160006101000a81548160ff021916908360018111156200028157fe5b021790555085816002019080519060200190620002a092919062000541565b508181600001819055508381600401819055508260ff166001811115620002c357fe5b8160050160006101000a81548160ff02191690836001811115620002e357fe5b0217905550600460008260010160009054906101000a900473ffffffffffffffffffffffffffffffffffffffff1673ffffffffffffffffffffffffffffffffffffffff1673ffffffffffffffffffffffffffffffffffffffff1681526020019081526020016000208290806001815401808255809150509060018203906000526020600020016000909192909190915055507f364ffb237e684f499c4f5016dd5c05e671c0587c18fedd566aa83008faf7329c828260010160009054906101000a900473ffffffffffffffffffffffffffffffffffffffff16836002018460030160009054906101000a900460ff166001811115620003de57fe5b85600401548660050160009054906101000a900460ff1660018111156200040157fe5b42604051808881526020018773ffffffffffffffffffffffffffffffffffffffff1673ffffffffffffffffffffffffffffffffffffffff168152602001806020018660ff1660ff1681526020018581526020018460ff1660ff168152602001838152602001828103825287818154600181600116156101000203166002900481526020019150805460018160011615610100020316600290048015620004eb5780601f10620004bf57610100808354040283529160200191620004eb565b820191906000526020600020905b815481529060010190602001808311620004cd57829003601f168201915b50509850505050505050505060405180910390a18191505095945050505050565b8154818355818111156200053c576006028160060283600052602060002091820191016200053b9190620005c8565b5b505050565b828054600181600116156101000203166002900490600052602060002090601f016020900481019282601f106200058457805160ff1916838001178555620005b5565b82800160010185558215620005b5579182015b82811115620005b457825182559160200191906001019062000597565b5b509050620005c491906200065b565b5090565b6200065891905b8082111562000654576000808201600090556001820160006101000a81549073ffffffffffffffffffffffffffffffffffffffff02191690556002820160006200061a919062000683565b6003820160006101000a81549060ff021916905560048201600090556005820160006101000a81549060ff021916905550600601620005cf565b5090565b90565b6200068091905b808211156200067c57600081600090555060010162000662565b5090565b90565b50805460018160011615610100020316600290046000825580601f10620006ab5750620006cc565b601f016020900490600052602060002090810190620006cb91906200065b565b5b50565b615a7680620006df6000396000f30060806040526004361061021a576000357c0100000000000000000000000000000000000000000000000000000000900463ffffffff16806302a11eb71461021f578063092a5cce146102805780630b018d8d14610297578063120030b214610305578063138ce900146104e45780631e7054b31461058957806323a347a7146106b2578063258e1ff71461071357806332434a2e1461077d578063365b98b21461081a5780633f22dab31461092b578063441a3e7014610a4257806347eece5814610a845780634a348da914610adb5780634e79902414610b06578063522a024c14610c1d5780635a494fd814610c5e578063715018a614610cbf57806372e3d23d14610cd65780637acc0b2014610d2d5780638340312014610ee557806386390d5e146110a45780638b3f863f146110ef5780638d0a5fbb1461114c5780638da5cb5b1461117757806398e8bd97146111ce5780639d9cbbb8146111f9578063a85c38ef146113d1578063a8819c7214611435578063b0467deb146114af578063b0e45d76146115b0578063b5cb15f714611671578063b9db15b41461169c578063bc3934f714611854578063c090840c146118dd578063c6025dad1461192f578063c9e8e6521461195a578063d09ef24114611a8d578063d8270dce14611af1578063e3fb819714611b1c578063e8a59cd814611b88578063f2fde38b14611d47578063f9c9929e14611d8a578063fe5ed7d614611deb575b600080fd5b34801561022b57600080fd5b5061026a600480360381019080803573ffffffffffffffffffffffffffffffffffffffff16906020019092919080359060200190929190505050611e5d565b6040518082815260200191505060405180910390f35b34801561028c57600080fd5b50610295611e8d565b005b3480156102a357600080fd5b506102cc6004803603810190808035906020019092919080359060200190929190505050611f8d565b60405180878152602001868152602001858152602001848152602001838152602001828152602001965050505050505060405180910390f35b34801561031157600080fd5b50610350600480360381019080803573ffffffffffffffffffffffffffffffffffffffff1690602001909291908035906020019092919050505061208f565b604051808781526020018673ffffffffffffffffffffffffffffffffffffffff1673ffffffffffffffffffffffffffffffffffffffff168152602001806020018060200185815260200180602001848103845288818151815260200191508051906020019080838360005b838110156103d65780820151818401526020810190506103bb565b50505050905090810190601f1680156104035780820380516001836020036101000a031916815260200191505b50848103835287818151815260200191508051906020019080838360005b8381101561043c578082015181840152602081019050610421565b50505050905090810190601f1680156104695780820380516001836020036101000a031916815260200191505b50848103825285818151815260200191508051906020019080838360005b838110156104a2578082015181840152602081019050610487565b50505050905090810190601f1680156104cf5780820380516001836020036101000a031916815260200191505b50995050505050505050505060405180910390f35b3480156104f057600080fd5b5061056f60048036038101908080359060200190929190803590602001908201803590602001908080601f0160208091040260200160405190810160405280939291908181526020018383808284378201915050505050509192919290803560ff169060200190929190803560ff1690602001909291905050506121b8565b604051808215151515815260200191505060405180910390f35b34801561059557600080fd5b5061069c600480360381019080803573ffffffffffffffffffffffffffffffffffffffff169060200190929190803590602001908201803590602001908080601f0160208091040260200160405190810160405280939291908181526020018383808284378201915050505050509192919290803590602001908201803590602001908080601f0160208091040260200160405190810160405280939291908181526020018383808284378201915050505050509192919290803590602001908201803590602001908080601f016020809104026020016040519081016040528093929190818152602001838380828437820191505050505050919291929050505061232c565b6040518082815260200191505060405180910390f35b3480156106be57600080fd5b506106fd600480360381019080803573ffffffffffffffffffffffffffffffffffffffff169060200190929190803590602001909291905050506126d2565b6040518082815260200191505060405180910390f35b34801561071f57600080fd5b5061073e60048036038101908080359060200190929190505050612702565b604051808781526020018681526020018581526020018481526020018381526020018260ff1660ff168152602001965050505050505060405180910390f35b34801561078957600080fd5b50610804600480360381019080803573ffffffffffffffffffffffffffffffffffffffff169060200190929190803590602001908201803590602001908080601f01602080910402602001604051908101604052809392919081815260200183838082843782019150505050505091929192905050506127dc565b6040518082815260200191505060405180910390f35b34801561082657600080fd5b50610845600480360381019080803590602001909291905050506127f5565b604051808781526020018673ffffffffffffffffffffffffffffffffffffffff1673ffffffffffffffffffffffffffffffffffffffff1681526020018060200185600181111561089157fe5b60ff1681526020018481526020018360018111156108ab57fe5b60ff168152602001828103825286818151815260200191508051906020019080838360005b838110156108eb5780820151818401526020810190506108d0565b50505050905090810190601f1680156109185780820380516001836020036101000a031916815260200191505b5097505050505050505060405180910390f35b34801561093757600080fd5b50610a2860048036038101908080359060200190929190803590602001908201803590602001908080601f0160208091040260200160405190810160405280939291908181526020018383808284378201915050505050509192919290803590602001908201803590602001908080601f0160208091040260200160405190810160405280939291908181526020018383808284378201915050505050509192919290803590602001908201803590602001908080601f0160208091040260200160405190810160405280939291908181526020018383808284378201915050505050509192919290505050612912565b604051808215151515815260200191505060405180910390f35b610a6a6004803603810190808035906020019092919080359060200190929190505050612b10565b604051808215151515815260200191505060405180910390f35b348015610a9057600080fd5b50610ac5600480360381019080803573ffffffffffffffffffffffffffffffffffffffff169060200190929190505050612d1e565b6040518082815260200191505060405180910390f35b348015610ae757600080fd5b50610af0612d6a565b6040518082815260200191505060405180910390f35b348015610b1257600080fd5b50610c0360048036038101908080359060200190929190803590602001908201803590602001908080601f0160208091040260200160405190810160405280939291908181526020018383808284378201915050505050509192919290803590602001908201803590602001908080601f0160208091040260200160405190810160405280939291908181526020018383808284378201915050505050509192919290803590602001908201803590602001908080601f0160208091040260200160405190810160405280939291908181526020018383808284378201915050505050509192919290505050612d77565b604051808215151515815260200191505060405180910390f35b348015610c2957600080fd5b50610c4860048036038101908080359060200190929190505050612f75565b6040518082815260200191505060405180910390f35b348015610c6a57600080fd5b50610ca9600480360381019080803573ffffffffffffffffffffffffffffffffffffffff16906020019092919080359060200190929190505050612f95565b6040518082815260200191505060405180910390f35b348015610ccb57600080fd5b50610cd4612fc5565b005b348015610ce257600080fd5b50610d17600480360381019080803573ffffffffffffffffffffffffffffffffffffffff1690602001909291905050506130c7565b6040518082815260200191505060405180910390f35b348015610d3957600080fd5b50610d5860048036038101908080359060200190929190505050613113565b604051808681526020018573ffffffffffffffffffffffffffffffffffffffff1673ffffffffffffffffffffffffffffffffffffffff168152602001806020018060200180602001848103845287818151815260200191508051906020019080838360005b83811015610dd8578082015181840152602081019050610dbd565b50505050905090810190601f168015610e055780820380516001836020036101000a031916815260200191505b50848103835286818151815260200191508051906020019080838360005b83811015610e3e578082015181840152602081019050610e23565b50505050905090810190601f168015610e6b5780820380516001836020036101000a031916815260200191505b50848103825285818151815260200191508051906020019080838360005b83811015610ea4578082015181840152602081019050610e89565b50505050905090810190601f168015610ed15780820380516001836020036101000a031916815260200191505b509850505050505050505060405180910390f35b348015610ef157600080fd5b50610f1060048036038101908080359060200190929190505050613340565b604051808781526020018673ffffffffffffffffffffffffffffffffffffffff1673ffffffffffffffffffffffffffffffffffffffff168152602001806020018060200185815260200180602001848103845288818151815260200191508051906020019080838360005b83811015610f96578082015181840152602081019050610f7b565b50505050905090810190601f168015610fc35780820380516001836020036101000a031916815260200191505b50848103835287818151815260200191508051906020019080838360005b83811015610ffc578082015181840152602081019050610fe1565b50505050905090810190601f1680156110295780820380516001836020036101000a031916815260200191505b50848103825285818151815260200191508051906020019080838360005b83811015611062578082015181840152602081019050611047565b50505050905090810190601f16801561108f5780820380516001836020036101000a031916815260200191505b50995050505050505050505060405180910390f35b3480156110b057600080fd5b506110d9600480360381019080803590602001909291908035906020019092919050505061360a565b6040518082815260200191505060405180910390f35b3480156110fb57600080fd5b50611130600480360381019080803573ffffffffffffffffffffffffffffffffffffffff16906020019092919050505061363a565b604051808260ff1660ff16815260200191505060405180910390f35b34801561115857600080fd5b50611161613856565b6040518082815260200191505060405180910390f35b34801561118357600080fd5b5061118c613863565b604051808273ffffffffffffffffffffffffffffffffffffffff1673ffffffffffffffffffffffffffffffffffffffff16815260200191505060405180910390f35b3480156111da57600080fd5b506111e3613888565b6040518082815260200191505060405180910390f35b34801561120557600080fd5b50611244600480360381019080803573ffffffffffffffffffffffffffffffffffffffff16906020019092919080359060200190929190505050613895565b604051808681526020018573ffffffffffffffffffffffffffffffffffffffff1673ffffffffffffffffffffffffffffffffffffffff168152602001806020018060200180602001848103845287818151815260200191508051906020019080838360005b838110156112c45780820151818401526020810190506112a9565b50505050905090810190601f1680156112f15780820380516001836020036101000a031916815260200191505b50848103835286818151815260200191508051906020019080838360005b8381101561132a57808201518184015260208101905061130f565b50505050905090810190601f1680156113575780820380516001836020036101000a031916815260200191505b50848103825285818151815260200191508051906020019080838360005b83811015611390578082015181840152602081019050611375565b50505050905090810190601f1680156113bd5780820380516001836020036101000a031916815260200191505b509850505050505050505060405180910390f35b3480156113dd57600080fd5b506113fc600480360381019080803590602001909291905050506139ba565b60405180878152602001868152602001858152602001848152602001838152602001828152602001965050505050505060405180910390f35b34801561144157600080fd5b506114956004803603810190808035906020019092919080359060200190929190803590602001909291908035906020019092919080359060200190929190803560ff169060200190929190505050613a05565b604051808215151515815260200191505060405180910390f35b3480156114bb57600080fd5b506114da60048036038101908080359060200190929190505050613c92565b604051808781526020018673ffffffffffffffffffffffffffffffffffffffff1673ffffffffffffffffffffffffffffffffffffffff168152602001806020018560ff1660ff1681526020018481526020018360ff1660ff168152602001828103825286818151815260200191508051906020019080838360005b83811015611570578082015181840152602081019050611555565b50505050905090810190601f16801561159d5780820380516001836020036101000a031916815260200191505b5097505050505050505060405180910390f35b3480156115bc57600080fd5b5061165b600480360381019080803573ffffffffffffffffffffffffffffffffffffffff169060200190929190803590602001908201803590602001908080601f0160208091040260200160405190810160405280939291908181526020018383808284378201915050505050509192919290803560ff16906020019092919080359060200190929190803560ff169060200190929190505050613e82565b6040518082815260200191505060405180910390f35b34801561167d57600080fd5b5061168661428b565b6040518082815260200191505060405180910390f35b3480156116a857600080fd5b506116c760048036038101908080359060200190929190505050614298565b604051808681526020018573ffffffffffffffffffffffffffffffffffffffff1673ffffffffffffffffffffffffffffffffffffffff168152602001806020018060200180602001848103845287818151815260200191508051906020019080838360005b8381101561174757808201518184015260208101905061172c565b50505050905090810190601f1680156117745780820380516001836020036101000a031916815260200191505b50848103835286818151815260200191508051906020019080838360005b838110156117ad578082015181840152602081019050611792565b50505050905090810190601f1680156117da5780820380516001836020036101000a031916815260200191505b50848103825285818151815260200191508051906020019080838360005b838110156118135780820151818401526020810190506117f8565b50505050905090810190601f1680156118405780820380516001836020036101000a031916815260200191505b509850505050505050505060405180910390f35b34801561186057600080fd5b506118c7600480360381019080803573ffffffffffffffffffffffffffffffffffffffff169060200190929190803590602001909291908035906020019092919080359060200190929190803590602001909291908035906020019092919050505061454f565b6040518082815260200191505060405180910390f35b611919600480360381019080803590602001909291908035906020019092919080359060200190929190803590602001909291905050506146af565b6040518082815260200191505060405180910390f35b34801561193b57600080fd5b50611944614a9b565b6040518082815260200191505060405180910390f35b34801561196657600080fd5b50611a77600480360381019080803573ffffffffffffffffffffffffffffffffffffffff169060200190929190803590602001908201803590602001908080601f0160208091040260200160405190810160405280939291908181526020018383808284378201915050505050509192919290803590602001908201803590602001908080601f016020809104026020016040519081016040528093929190818152602001838380828437820191505050505050919291929080359060200190929190803590602001908201803590602001908080601f0160208091040260200160405190810160405280939291908181526020018383808284378201915050505050509192919290505050614aa8565b6040518082815260200191505060405180910390f35b348015611a9957600080fd5b50611ab860048036038101908080359060200190929190505050614e64565b60405180878152602001868152602001858152602001848152602001838152602001828152602001965050505050505060405180910390f35b348015611afd57600080fd5b50611b06614f10565b6040518082815260200191505060405180910390f35b348015611b2857600080fd5b50611b7260048036038101908080359060200190929190803590602001909291908035906020019092919080359060200190929190803560ff169060200190929190505050614f16565b6040518082815260200191505060405180910390f35b348015611b9457600080fd5b50611bb360048036038101908080359060200190929190505050615067565b604051808781526020018673ffffffffffffffffffffffffffffffffffffffff1673ffffffffffffffffffffffffffffffffffffffff168152602001806020018060200185815260200180602001848103845288818151815260200191508051906020019080838360005b83811015611c39578082015181840152602081019050611c1e565b50505050905090810190601f168015611c665780820380516001836020036101000a031916815260200191505b50848103835287818151815260200191508051906020019080838360005b83811015611c9f578082015181840152602081019050611c84565b50505050905090810190601f168015611ccc5780820380516001836020036101000a031916815260200191505b50848103825285818151815260200191508051906020019080838360005b83811015611d05578082015181840152602081019050611cea565b50505050905090810190601f168015611d325780820380516001836020036101000a031916815260200191505b50995050505050505050505060405180910390f35b348015611d5357600080fd5b50611d88600480360381019080803573ffffffffffffffffffffffffffffffffffffffff16906020019092919050505061529a565b005b348015611d9657600080fd5b50611dd5600480360381019080803573ffffffffffffffffffffffffffffffffffffffff16906020019092919080359060200190929190505050615301565b6040518082815260200191505060405180910390f35b348015611df757600080fd5b50611e1660048036038101908080359060200190929190505050615331565b60405180878152602001868152602001858152602001848152602001838152602001826001811115611e4457fe5b60ff168152602001965050505050505060405180910390f35b600560205281600052604060002081815481101515611e7857fe5b90600052602060002001600091509150505481565b3373ffffffffffffffffffffffffffffffffffffffff16600260009054906101000a900473ffffffffffffffffffffffffffffffffffffffff1673ffffffffffffffffffffffffffffffffffffffff16141515611f52576040517f08c379a00000000000000000000000000000000000000000000000000000000081526004018080602001828103825260188152602001807f6f776e657220726573747269637465642066656174757265000000000000000081525060200191505060405180910390fd5b600260009054906101000a900473ffffffffffffffffffffffffffffffffffffffff1673ffffffffffffffffffffffffffffffffffffffff16ff5b60008060008060008086611fa089612f75565b101515611ff157611fda600760008a815260200190815260200160002088815481101515611fca57fe5b9060005260206000200154612702565b8060ff169050955095509550955095509550612085565b6040517f08c379a00000000000000000000000000000000000000000000000000000000081526004018080602001828103825260328152602001807f73746f72652070726f6475637420696e64657820646f6573206e6f742065786981526020017f737420666f7220746869732073746f726521000000000000000000000000000081525060400191505060405180910390fd5b9295509295509295565b60008060608060006060866120a389612d1e565b10151561211a57612109600560008a73ffffffffffffffffffffffffffffffffffffffff1673ffffffffffffffffffffffffffffffffffffffff168152602001908152602001600020888154811015156120f957fe5b9060005260206000200154613340565b9550955095509550955095506121ae565b6040517f08c379a000000000000000000000000000000000000000000000000000000000815260040180806020018281038252602a8152602001807f73746f726520696e64657820646f6573206e6f7420657869737420666f72207481526020017f686973206f776e6572210000000000000000000000000000000000000000000081525060400191505060405180910390fd5b9295509295509295565b60008260ff1660018111156121c957fe5b6009868154811015156121d857fe5b906000526020600020906006020160030160006101000a81548160ff0219169083600181111561220457fe5b02179055508260ff16600181111561221857fe5b60098681548110151561222757fe5b906000526020600020906006020160050160006101000a81548160ff0219169083600181111561225357fe5b02179055507f8200842cc480218e49486e4bacbcf5b43885971df077227a44fd3da6f6e4dc5b858585854260405180868152602001806020018560ff1660ff1681526020018460ff1660ff168152602001838152602001828103825286818151815260200191508051906020019080838360005b838110156122e25780820151818401526020810190506122c7565b50505050905090810190601f16801561230f5780820380516001836020036101000a031916815260200191505b50965050505050505060405180910390a160019050949350505050565b600080600b805480919060010161234391906154b8565b9150600b8281548110151561235457fe5b90600052602060002090600502019050818160000181905550858160010160006101000a81548173ffffffffffffffffffffffffffffffffffffffff021916908373ffffffffffffffffffffffffffffffffffffffff160217905550848160020190805190602001906123c89291906154ea565b50838160030190805190602001906123e19291906154ea565b50828160040190805190602001906123fa9291906154ea565b50600660008260010160009054906101000a900473ffffffffffffffffffffffffffffffffffffffff1673ffffffffffffffffffffffffffffffffffffffff1673ffffffffffffffffffffffffffffffffffffffff1681526020019081526020016000208290806001815401808255809150509060018203906000526020600020016000909192909190915055507f14c33d0f8bae2503b78893b5940028949760d5c756d040a9955f6a85a27ec25f828260010160009054906101000a900473ffffffffffffffffffffffffffffffffffffffff1683600201846003018560040142604051808781526020018673ffffffffffffffffffffffffffffffffffffffff1673ffffffffffffffffffffffffffffffffffffffff1681526020018060200180602001806020018581526020018481038452888181546001816001161561010002031660029004815260200191508054600181600116156101000203166002900480156125ab5780601f10612580576101008083540402835291602001916125ab565b820191906000526020600020905b81548152906001019060200180831161258e57829003601f168201915b505084810383528781815460018160011615610100020316600290048152602001915080546001816001161561010002031660029004801561262e5780601f106126035761010080835404028352916020019161262e565b820191906000526020600020905b81548152906001019060200180831161261157829003601f168201915b50508481038252868181546001816001161561010002031660029004815260200191508054600181600116156101000203166002900480156126b15780601f10612686576101008083540402835291602001916126b1565b820191906000526020600020905b81548152906001019060200180831161269457829003601f168201915b5050995050505050505050505060405180910390a181915050949350505050565b6008602052816000526040600020818154811015156126ed57fe5b90600052602060002001600091509150505481565b60008060008060008061271361556a565b600c8881548110151561272257fe5b906000526020600020906006020160c0604051908101604052908160008201548152602001600182015481526020016002820154815260200160038201548152602001600482015481526020016005820160009054906101000a900460ff16600181111561278c57fe5b600181111561279757fe5b815250509050806000015181602001518260400151836060015184608001518560a0015160018111156127c657fe5b9650965096509650965096505091939550919395565b60006127ed83836001600080613e82565b905092915050565b60098181548110151561280457fe5b90600052602060002090600602016000915090508060000154908060010160009054906101000a900473ffffffffffffffffffffffffffffffffffffffff1690806002018054600181600116156101000203166002900480601f0160208091040260200160405190810160405280929190818152602001828054600181600116156101000203166002900480156128dc5780601f106128b1576101008083540402835291602001916128dc565b820191906000526020600020905b8154815290600101906020018083116128bf57829003601f168201915b5050505050908060030160009054906101000a900460ff16908060040154908060050160009054906101000a900460ff16905086565b600082600b8681548110151561292457fe5b906000526020600020906005020160030190805190602001906129489291906154ea565b5081600b8681548110151561295957fe5b9060005260206000209060050201600401908051906020019061297d9291906154ea565b507f899cfc3364ae9e338fe89c2e276640e6ff57adc68b9e2eabbe0ea261c8bffc96858585854260405180868152602001806020018060200180602001858152602001848103845288818151815260200191508051906020019080838360005b838110156129f85780820151818401526020810190506129dd565b50505050905090810190601f168015612a255780820380516001836020036101000a031916815260200191505b50848103835287818151815260200191508051906020019080838360005b83811015612a5e578082015181840152602081019050612a43565b50505050905090810190601f168015612a8b5780820380516001836020036101000a031916815260200191505b50848103825286818151815260200191508051906020019080838360005b83811015612ac4578082015181840152602081019050612aa9565b50505050905090810190601f168015612af15780820380516001836020036101000a031916815260200191505b509850505050505050505060405180910390a160019050949350505050565b60003373ffffffffffffffffffffffffffffffffffffffff16600a84815481101515612b3857fe5b906000526020600020906006020160010160009054906101000a900473ffffffffffffffffffffffffffffffffffffffff1673ffffffffffffffffffffffffffffffffffffffff16141515612bf5576040517f08c379a00000000000000000000000000000000000000000000000000000000081526004018080602001828103825260168152602001807f6d757374206265206f776e6572206f662073746f72650000000000000000000081525060200191505060405180910390fd5b81600a84815481101515612c0557fe5b90600052602060002090600602016004015410151515612c8d576040517f08c379a000000000000000000000000000000000000000000000000000000000815260040180806020018281038252601f8152602001807f616d6f756e742067726561746572207468616e2073746f72652076616c75650081525060200191505060405180910390fd5b612cc082600a85815481101515612ca057fe5b90600052602060002090600602016004015461538990919063ffffffff16565b50612d1382600360003373ffffffffffffffffffffffffffffffffffffffff1673ffffffffffffffffffffffffffffffffffffffff168152602001908152602001600020546153a290919063ffffffff16565b506001905092915050565b6000600560008373ffffffffffffffffffffffffffffffffffffffff1673ffffffffffffffffffffffffffffffffffffffff168152602001908152602001600020805490509050919050565b6000600b80549050905090565b600082600a86815481101515612d8957fe5b90600052602060002090600602016003019080519060200190612dad9291906154ea565b5081600a86815481101515612dbe57fe5b90600052602060002090600602016005019080519060200190612de29291906154ea565b507f08bf35d75bdfd8e7518415b89a85b013c59c726b548789b500880de2943bd8c3858585854260405180868152602001806020018060200180602001858152602001848103845288818151815260200191508051906020019080838360005b83811015612e5d578082015181840152602081019050612e42565b50505050905090810190601f168015612e8a5780820380516001836020036101000a031916815260200191505b50848103835287818151815260200191508051906020019080838360005b83811015612ec3578082015181840152602081019050612ea8565b50505050905090810190601f168015612ef05780820380516001836020036101000a031916815260200191505b50848103825286818151815260200191508051906020019080838360005b83811015612f29578082015181840152602081019050612f0e565b50505050905090810190601f168015612f565780820380516001836020036101000a031916815260200191505b509850505050505050505060405180910390a160019050949350505050565b600060076000838152602001908152602001600020805490509050919050565b600660205281600052604060002081815481101515612fb057fe5b90600052602060002001600091509150505481565b6000809054906101000a900473ffffffffffffffffffffffffffffffffffffffff1673ffffffffffffffffffffffffffffffffffffffff163373ffffffffffffffffffffffffffffffffffffffff1614151561302057600080fd5b6000809054906101000a900473ffffffffffffffffffffffffffffffffffffffff1673ffffffffffffffffffffffffffffffffffffffff167ff8df31144d9c2f0f6b59d69b8b98abd5459d07f2742c4df920b25aae33c6482060405160405180910390a260008060006101000a81548173ffffffffffffffffffffffffffffffffffffffff021916908373ffffffffffffffffffffffffffffffffffffffff160217905550565b6000600660008373ffffffffffffffffffffffffffffffffffffffff1673ffffffffffffffffffffffffffffffffffffffff168152602001908152602001600020805490509050919050565b600b8181548110151561312257fe5b90600052602060002090600502016000915090508060000154908060010160009054906101000a900473ffffffffffffffffffffffffffffffffffffffff1690806002018054600181600116156101000203166002900480601f0160208091040260200160405190810160405280929190818152602001828054600181600116156101000203166002900480156131fa5780601f106131cf576101008083540402835291602001916131fa565b820191906000526020600020905b8154815290600101906020018083116131dd57829003601f168201915b505050505090806003018054600181600116156101000203166002900480601f0160208091040260200160405190810160405280929190818152602001828054600181600116156101000203166002900480156132985780601f1061326d57610100808354040283529160200191613298565b820191906000526020600020905b81548152906001019060200180831161327b57829003601f168201915b505050505090806004018054600181600116156101000203166002900480601f0160208091040260200160405190810160405280929190818152602001828054600181600116156101000203166002900480156133365780601f1061330b57610100808354040283529160200191613336565b820191906000526020600020905b81548152906001019060200180831161331957829003601f168201915b5050505050905085565b600080606080600060606133526155ac565b600a8881548110151561336157fe5b906000526020600020906006020160c06040519081016040529081600082015481526020016001820160009054906101000a900473ffffffffffffffffffffffffffffffffffffffff1673ffffffffffffffffffffffffffffffffffffffff1673ffffffffffffffffffffffffffffffffffffffff168152602001600282018054600181600116156101000203166002900480601f0160208091040260200160405190810160405280929190818152602001828054600181600116156101000203166002900480156134745780601f1061344957610100808354040283529160200191613474565b820191906000526020600020905b81548152906001019060200180831161345757829003601f168201915b50505050508152602001600382018054600181600116156101000203166002900480601f0160208091040260200160405190810160405280929190818152602001828054600181600116156101000203166002900480156135165780601f106134eb57610100808354040283529160200191613516565b820191906000526020600020905b8154815290600101906020018083116134f957829003601f168201915b5050505050815260200160048201548152602001600582018054600181600116156101000203166002900480601f0160208091040260200160405190810160405280929190818152602001828054600181600116156101000203166002900480156135c25780601f10613597576101008083540402835291602001916135c2565b820191906000526020600020905b8154815290600101906020018083116135a557829003601f168201915b5050505050815250509050806000015181602001518260400151836060015184608001518560a001518393508292508090509650965096509650965096505091939550919395565b60076020528160005260406000208181548110151561362557fe5b90600052602060002001600091509150505481565b6000806000806136486155f9565b600293506009805490509250600091505b8282101561384a5760098281548110151561367057fe5b906000526020600020906006020160c06040519081016040529081600082015481526020016001820160009054906101000a900473ffffffffffffffffffffffffffffffffffffffff1673ffffffffffffffffffffffffffffffffffffffff1673ffffffffffffffffffffffffffffffffffffffff168152602001600282018054600181600116156101000203166002900480601f0160208091040260200160405190810160405280929190818152602001828054600181600116156101000203166002900480156137835780601f1061375857610100808354040283529160200191613783565b820191906000526020600020905b81548152906001019060200180831161376657829003601f168201915b505050505081526020016003820160009054906101000a900460ff1660018111156137aa57fe5b60018111156137b557fe5b8152602001600482015481526020016005820160009054906101000a900460ff1660018111156137e157fe5b60018111156137ec57fe5b8152505090508573ffffffffffffffffffffffffffffffffffffffff16816020015173ffffffffffffffffffffffffffffffffffffffff16141561383d578060600151600181111561383a57fe5b93505b8180600101925050613659565b83945050505050919050565b6000600d80549050905090565b6000809054906101000a900473ffffffffffffffffffffffffffffffffffffffff1681565b6000600a80549050905090565b6000806060806060856138a7886130c7565b10151561391c5761390d600660008973ffffffffffffffffffffffffffffffffffffffff1673ffffffffffffffffffffffffffffffffffffffff168152602001908152602001600020878154811015156138fd57fe5b9060005260206000200154614298565b945094509450945094506139b0565b6040517f08c379a000000000000000000000000000000000000000000000000000000000815260040180806020018281038252602c8152602001807f70726f6475637420696e64657820646f6573206e6f7420657869737420666f7281526020017f2074686973206f776e657221000000000000000000000000000000000000000081525060400191505060405180910390fd5b9295509295909350565b600d818154811015156139c957fe5b90600052602060002090600602016000915090508060000154908060010154908060020154908060030154908060040154908060050154905086565b600085600c88815481101515613a1757fe5b906000526020600020906006020160010154141515613ac4576040517f08c379a000000000000000000000000000000000000000000000000000000000815260040180806020018281038252602d8152602001807f73746f7265206964206d69736d6174636820647572696e67207570646174655381526020017f746f726550726f6475637428290000000000000000000000000000000000000081525060400191505060405180910390fd5b84600c88815481101515613ad457fe5b906000526020600020906006020160020154141515613b81576040517f08c379a000000000000000000000000000000000000000000000000000000000815260040180806020018281038252602f8152602001807f70726f64756374206964206d69736d6174636820647572696e6720757064617481526020017f6553746f726550726f647563742829000000000000000000000000000000000081525060400191505060405180910390fd5b83600c88815481101515613b9157fe5b90600052602060002090600602016003018190555082600c88815481101515613bb657fe5b9060005260206000209060060201600401819055508160ff166001811115613bda57fe5b600c88815481101515613be957fe5b906000526020600020906006020160050160006101000a81548160ff02191690836001811115613c1557fe5b02179055507fec3e2bc0159748a840f3b8cef744e7ece595eda99df59b42b41c3eadae3ba20487878787878742604051808881526020018781526020018681526020018581526020018481526020018360ff16815260200182815260200197505050505050505060405180910390a1600190509695505050505050565b60008060606000806000613ca46155f9565b600988815481101515613cb357fe5b906000526020600020906006020160c06040519081016040529081600082015481526020016001820160009054906101000a900473ffffffffffffffffffffffffffffffffffffffff1673ffffffffffffffffffffffffffffffffffffffff1673ffffffffffffffffffffffffffffffffffffffff168152602001600282018054600181600116156101000203166002900480601f016020809104026020016040519081016040528092919081815260200182805460018160011615610100020316600290048015613dc65780601f10613d9b57610100808354040283529160200191613dc6565b820191906000526020600020905b815481529060010190602001808311613da957829003601f168201915b505050505081526020016003820160009054906101000a900460ff166001811115613ded57fe5b6001811115613df857fe5b8152602001600482015481526020016005820160009054906101000a900460ff166001811115613e2457fe5b6001811115613e2f57fe5b81525050905080600001518160200151826040015183606001516001811115613e5457fe5b84608001518560a001516001811115613e6957fe5b8393509650965096509650965096505091939550919395565b6000806000600460008973ffffffffffffffffffffffffffffffffffffffff1673ffffffffffffffffffffffffffffffffffffffff168152602001908152602001600020805490501115613f64576040517f08c379a000000000000000000000000000000000000000000000000000000000815260040180806020018281038252602a8152602001807f54686973206164647265737320697320616c726561647920612072656769737481526020017f6572656420757365722e0000000000000000000000000000000000000000000081525060400191505060405180910390fd5b60098054809190600101613f78919061565c565b9150600982815481101515613f8957fe5b90600052602060002090600602019050868160010160006101000a81548173ffffffffffffffffffffffffffffffffffffffff021916908373ffffffffffffffffffffffffffffffffffffffff1602179055508460ff166001811115613feb57fe5b8160030160006101000a81548160ff0219169083600181111561400a57fe5b0217905550858160020190805190602001906140279291906154ea565b508181600001819055508381600401819055508260ff16600181111561404957fe5b8160050160006101000a81548160ff0219169083600181111561406857fe5b0217905550600460008260010160009054906101000a900473ffffffffffffffffffffffffffffffffffffffff1673ffffffffffffffffffffffffffffffffffffffff1673ffffffffffffffffffffffffffffffffffffffff1681526020019081526020016000208290806001815401808255809150509060018203906000526020600020016000909192909190915055507f364ffb237e684f499c4f5016dd5c05e671c0587c18fedd566aa83008faf7329c828260010160009054906101000a900473ffffffffffffffffffffffffffffffffffffffff16836002018460030160009054906101000a900460ff16600181111561416257fe5b85600401548660050160009054906101000a900460ff16600181111561418457fe5b42604051808881526020018773ffffffffffffffffffffffffffffffffffffffff1673ffffffffffffffffffffffffffffffffffffffff168152602001806020018660ff1660ff1681526020018581526020018460ff1660ff16815260200183815260200182810382528781815460018160011615610100020316600290048152602001915080546001816001161561010002031660029004801561426a5780601f1061423f5761010080835404028352916020019161426a565b820191906000526020600020905b81548152906001019060200180831161424d57829003601f168201915b50509850505050505050505060405180910390a18191505095945050505050565b6000600980549050905090565b60008060608060606142a861568e565b600b878154811015156142b757fe5b906000526020600020906005020160a06040519081016040529081600082015481526020016001820160009054906101000a900473ffffffffffffffffffffffffffffffffffffffff1673ffffffffffffffffffffffffffffffffffffffff1673ffffffffffffffffffffffffffffffffffffffff168152602001600282018054600181600116156101000203166002900480601f0160208091040260200160405190810160405280929190818152602001828054600181600116156101000203166002900480156143ca5780601f1061439f576101008083540402835291602001916143ca565b820191906000526020600020905b8154815290600101906020018083116143ad57829003601f168201915b50505050508152602001600382018054600181600116156101000203166002900480601f01602080910402602001604051908101604052809291908181526020018280546001816001161561010002031660029004801561446c5780601f106144415761010080835404028352916020019161446c565b820191906000526020600020905b81548152906001019060200180831161444f57829003601f168201915b50505050508152602001600482018054600181600116156101000203166002900480601f01602080910402602001604051908101604052809291908181526020018280546001816001161561010002031660029004801561450e5780601f106144e35761010080835404028352916020019161450e565b820191906000526020600020905b8154815290600101906020018083116144f157829003601f168201915b505050505081525050905080600001518160200151826040015183606001518460800151829250819150809050955095509550955095505091939590929450565b600080600d805480919060010161456691906156d4565b9150600d8281548110151561457757fe5b90600052602060002090600602019050868160010181905550858160020181905550848160030181905550818160000181905550838160040181905550828160050181905550600860008973ffffffffffffffffffffffffffffffffffffffff1673ffffffffffffffffffffffffffffffffffffffff1681526020019081526020016000208290806001815401808255809150509060018203906000526020600020016000909192909190915055507fd4888cbd800088a6f98f85e2dcc1c3a00c4e3d09f45954e557a87f4b1ce7ec618282600101548360020154846003015485600401548660050154426040518088815260200187815260200186815260200185815260200184815260200183815260200182815260200197505050505050505060405180910390a1819150509695505050505050565b60006146b961556a565b60008086101580156146d05750600c805490508611155b1515614744576040517f08c379a000000000000000000000000000000000000000000000000000000000815260040180806020018281038252601f8152602001807f73746f72652070726f6475637420696420646f6573206e6f742065786973740081525060200191505060405180910390fd5b600c8681548110151561475357fe5b906000526020600020906006020160c0604051908101604052908160008201548152602001600182015481526020016002820154815260200160038201548152602001600482015481526020016005820160009054906101000a900460ff1660018111156147bd57fe5b60018111156147c857fe5b815250509150868260200151141515614849576040517f08c379a00000000000000000000000000000000000000000000000000000000081526004018080602001828103825260178152602001807f73746f726520696420646f6573206e6f74206d6174636800000000000000000081525060200191505060405180910390fd5b600082608001511115156148eb576040517f08c379a00000000000000000000000000000000000000000000000000000000081526004018080602001828103825260278152602001807f696e73756666696369656e7420696e76656e746f7279206f662073746f72652081526020017f70726f647563740000000000000000000000000000000000000000000000000081525060400191505060405180910390fd5b600c868154811015156148fa57fe5b9060005260206000209060060201600301548402905080600360003373ffffffffffffffffffffffffffffffffffffffff1673ffffffffffffffffffffffffffffffffffffffff16815260200190815260200160002054101515156149c7576040517f08c379a000000000000000000000000000000000000000000000000000000000815260040180806020018281038252601c8152602001807f62757965722068617320696e73756666696369656e742066756e64730000000081525060200191505060405180910390fd5b6001600c878154811015156149d857fe5b906000526020600020906006020160040160008282540392505081905550614a4881600360003373ffffffffffffffffffffffffffffffffffffffff1673ffffffffffffffffffffffffffffffffffffffff1681526020019081526020016000205461538990919063ffffffff16565b50614a7c81600a89815481101515614a5c57fe5b9060005260206000209060060201600401546153a290919063ffffffff16565b50614a8f3388888886606001518961454f565b92505050949350505050565b6000600c80549050905090565b600080600a8054809190600101614abf9190615706565b9150600a82815481101515614ad057fe5b90600052602060002090600602019050868160010160006101000a81548173ffffffffffffffffffffffffffffffffffffffff021916908373ffffffffffffffffffffffffffffffffffffffff16021790555081816000018190555085816002019080519060200190614b449291906154ea565b5084816003019080519060200190614b5d9291906154ea565b5083816004018190555082816005019080519060200190614b7f9291906154ea565b50600560008260010160009054906101000a900473ffffffffffffffffffffffffffffffffffffffff1673ffffffffffffffffffffffffffffffffffffffff1673ffffffffffffffffffffffffffffffffffffffff1681526020019081526020016000208290806001815401808255809150509060018203906000526020600020016000909192909190915055507f8bb770a8f4ad33b1a688b570a2dd3a4595bb16c3d01ec204b197e431416fdac3828260010160009054906101000a900473ffffffffffffffffffffffffffffffffffffffff16836002018460030185600401548660050142604051808881526020018773ffffffffffffffffffffffffffffffffffffffff1673ffffffffffffffffffffffffffffffffffffffff168152602001806020018060200186815260200180602001858152602001848103845289818154600181600116156101000203166002900481526020019150805460018160011615610100020316600290048015614d3b5780601f10614d1057610100808354040283529160200191614d3b565b820191906000526020600020905b815481529060010190602001808311614d1e57829003601f168201915b5050848103835288818154600181600116156101000203166002900481526020019150805460018160011615610100020316600290048015614dbe5780601f10614d9357610100808354040283529160200191614dbe565b820191906000526020600020905b815481529060010190602001808311614da157829003601f168201915b5050848103825286818154600181600116156101000203166002900481526020019150805460018160011615610100020316600290048015614e415780601f10614e1657610100808354040283529160200191614e41565b820191906000526020600020905b815481529060010190602001808311614e2457829003601f168201915b50509a505050505050505050505060405180910390a18191505095945050505050565b600080600080600080614e75615738565b600d88815481101515614e8457fe5b906000526020600020906006020160c0604051908101604052908160008201548152602001600182015481526020016002820154815260200160038201548152602001600482015481526020016005820154815250509050806000015181602001518260400151836060015184608001518560a001519650965096509650965096505091939550919395565b60015481565b600080600c8054809190600101614f2d919061576f565b9150600c82815481101515614f3e57fe5b906000526020600020906006020190508681600101819055508581600201819055508181600001819055508481600301819055508381600401819055508260ff166001811115614f8a57fe5b8160050160006101000a81548160ff02191690836001811115614fa957fe5b0217905550600760008881526020019081526020016000208290806001815401808255809150509060018203906000526020600020016000909192909190915055507f6bcc7c097cd959c9d9dadfbf0f49d97b4b4a3374ce0ee4a157954cd46d4ad2f88282600101548360020154846003015485600401544260405180878152602001868152602001858152602001848152602001838152602001828152602001965050505050505060405180910390a18191505095945050505050565b600a8181548110151561507657fe5b90600052602060002090600602016000915090508060000154908060010160009054906101000a900473ffffffffffffffffffffffffffffffffffffffff1690806002018054600181600116156101000203166002900480601f01602080910402602001604051908101604052809291908181526020018280546001816001161561010002031660029004801561514e5780601f106151235761010080835404028352916020019161514e565b820191906000526020600020905b81548152906001019060200180831161513157829003601f168201915b505050505090806003018054600181600116156101000203166002900480601f0160208091040260200160405190810160405280929190818152602001828054600181600116156101000203166002900480156151ec5780601f106151c1576101008083540402835291602001916151ec565b820191906000526020600020905b8154815290600101906020018083116151cf57829003601f168201915b505050505090806004015490806005018054600181600116156101000203166002900480601f0160208091040260200160405190810160405280929190818152602001828054600181600116156101000203166002900480156152905780601f1061526557610100808354040283529160200191615290565b820191906000526020600020905b81548152906001019060200180831161527357829003601f168201915b5050505050905086565b6000809054906101000a900473ffffffffffffffffffffffffffffffffffffffff1673ffffffffffffffffffffffffffffffffffffffff163373ffffffffffffffffffffffffffffffffffffffff161415156152f557600080fd5b6152fe816153be565b50565b60046020528160005260406000208181548110151561531c57fe5b90600052602060002001600091509150505481565b600c8181548110151561534057fe5b90600052602060002090600602016000915090508060000154908060010154908060020154908060030154908060040154908060050160009054906101000a900460ff16905086565b600082821115151561539757fe5b818303905092915050565b600081830190508281101515156153b557fe5b80905092915050565b600073ffffffffffffffffffffffffffffffffffffffff168173ffffffffffffffffffffffffffffffffffffffff16141515156153fa57600080fd5b8073ffffffffffffffffffffffffffffffffffffffff166000809054906101000a900473ffffffffffffffffffffffffffffffffffffffff1673ffffffffffffffffffffffffffffffffffffffff167f8be0079c531659141344cd1fd0a4f28419497f9722a3daafe3b4186f6b6457e060405160405180910390a3806000806101000a81548173ffffffffffffffffffffffffffffffffffffffff021916908373ffffffffffffffffffffffffffffffffffffffff16021790555050565b8154818355818111156154e5576005028160050283600052602060002091820191016154e491906157a1565b5b505050565b828054600181600116156101000203166002900490600052602060002090601f016020900481019282601f1061552b57805160ff1916838001178555615559565b82800160010185558215615559579182015b8281111561555857825182559160200191906001019061553d565b5b509050615566919061581f565b5090565b60c0604051908101604052806000815260200160008152602001600081526020016000815260200160008152602001600060018111156155a657fe5b81525090565b60c06040519081016040528060008152602001600073ffffffffffffffffffffffffffffffffffffffff168152602001606081526020016060815260200160008152602001606081525090565b60c06040519081016040528060008152602001600073ffffffffffffffffffffffffffffffffffffffff168152602001606081526020016000600181111561563d57fe5b8152602001600081526020016000600181111561565657fe5b81525090565b815481835581811115615689576006028160060283600052602060002091820191016156889190615844565b5b505050565b60a06040519081016040528060008152602001600073ffffffffffffffffffffffffffffffffffffffff1681526020016060815260200160608152602001606081525090565b8154818355818111156157015760060281600602836000526020600020918201910161570091906158d2565b5b505050565b815481835581811115615733576006028160060283600052602060002091820191016157329190615921565b5b505050565b60c0604051908101604052806000815260200160008152602001600081526020016000815260200160008152602001600081525090565b81548183558181111561579c5760060281600602836000526020600020918201910161579b91906159a7565b5b505050565b61581c91905b80821115615818576000808201600090556001820160006101000a81549073ffffffffffffffffffffffffffffffffffffffff02191690556002820160006157ef9190615a02565b6003820160006157ff9190615a02565b60048201600061580f9190615a02565b506005016157a7565b5090565b90565b61584191905b8082111561583d576000816000905550600101615825565b5090565b90565b6158cf91905b808211156158cb576000808201600090556001820160006101000a81549073ffffffffffffffffffffffffffffffffffffffff02191690556002820160006158929190615a02565b6003820160006101000a81549060ff021916905560048201600090556005820160006101000a81549060ff02191690555060060161584a565b5090565b90565b61591e91905b8082111561591a5760008082016000905560018201600090556002820160009055600382016000905560048201600090556005820160009055506006016158d8565b5090565b90565b6159a491905b808211156159a0576000808201600090556001820160006101000a81549073ffffffffffffffffffffffffffffffffffffffff021916905560028201600061596f9190615a02565b60038201600061597f9190615a02565b60048201600090556005820160006159979190615a02565b50600601615927565b5090565b90565b6159ff91905b808211156159fb5760008082016000905560018201600090556002820160009055600382016000905560048201600090556005820160006101000a81549060ff0219169055506006016159ad565b5090565b90565b50805460018160011615610100020316600290046000825580601f10615a285750615a47565b601f016020900490600052602060002090810190615a46919061581f565b5b505600a165627a7a7230582017f138b4bda560be135d3ce65b7da3132e1947b5016419a5bf72bbc480ad2e590029",
  "source": "pragma solidity ^0.4.17;\n//npm install -E openzeppelin-solidity\nimport \"openzeppelin-solidity/contracts/math/SafeMath.sol\";\nimport \"openzeppelin-solidity/contracts/ownership/Ownable.sol\";\n\n/*  \n * This Online MarketPlace is managed by administrators [user type = Admin (0)].\n * Store owners can register and then manage their stores, products, store inventory and funds.\n * Shoppers can visit stores and purchase items that are available using cryptocurrency wallet\n */\n\ncontract MarketPlace is Ownable {       // Using ownable library.\n\n    using SafeMath for uint;            // Using safe math library.\n    uint public creationTime = now;     // Time of deployment.\n    address owner;                      // Owner of contract and initial admin user.\n\n    constructor() public\n     {\n        // Create initial administrator account at deployment.\n        owner = msg.sender;\n        createUser(msg.sender, \"Admin\", 0, 0, 0);\n    }\n\n    modifier ownerRestricted {\n        require(owner == msg.sender, \"owner restricted feature\");\n        _;\n        // \"_;\" is replaced by the function body where the modifier is used.\n    } \n\n    function destroyContract() external ownerRestricted {\n        // Destroy is limited to owner.\n        // This point in the contract, loop through the stores and \n        // return any funds to the wallet of the store owner.\n        selfdestruct(owner);\n    }\n\n    mapping (address => uint) balance;  /* reference to balance in user wallet */\n\n    // structure for user\n    struct user\n    {\n        uint uid;\n        address user;\n        string username;\n        userType usertype;\n        uint256 amount;\n        userStatus userstatus;\n    }\n    enum userType {Admin, Owner}\n    enum userStatus {Enabled, Disabled}\n\n    // structure for store\n    struct store\n    {\n        uint sid;\n        address owner;\n        string name;\n        string description;\n        uint256 amount;\n        string imgsrc;\n    }\n\n    // structure for product\n    struct product\n    {\n        uint pid;\n        address owner;\n        string name;\n        string description;\n        string imgsrc;\n    }\n\n    // structure for store product (a product within a store)\n    struct storeproduct\n    {\n        uint spid;\n        uint sid;\n        uint pid;\n        uint256 price;\n        uint256 qty_avail;\n        productStatus status;\n    }          \n    enum productStatus { Available, BackOrder}\n\n    // structure for order (a purchase of a product from a store)\n    struct order\n    {\n        uint oid;\n        // uint uid;\n        uint sid;\n        uint spid;\n        uint pid;\n        uint256 price;\n        uint256 qty;\n    }\n\n    // mappings for ownership of user, store, product, store product and order.\n    mapping(address => uint[]) public UserOwnerMap;\n    mapping(address => uint[]) public StoreOwnerMap;\n    mapping(address => uint[]) public ProductOwnerMap;\n    mapping(uint => uint[]) public StoreProductMap;\n    mapping(address => uint[]) public OrderOwnerMap;\n\n    /* \n     * the following storage areas are likely stored mostly off chain\n     * and only the financial transaction stored in the ledger\n     */\n    user[] public users;                    /* data storage area for users */\n    store[] public stores;                  /* data storage area for stores */\n    product[] public products;              /* data storage area for products */\n    storeproduct[] public storeproducts;    /* data storage area for products in a store */\n    order[] public orders;                  /* data storage area for product purchase from a store */\n\n    // list events and information within them\n    event orderCreated (uint oid, uint uid, uint sid, uint pid, uint256 price, uint256 qty, uint timestamp);\n    event productCreated(uint pid, address owner, string name, string description, string imgsrc, uint timestamp);\n    event productUpdated(uint pid, string name, string description, string imgsrc, uint timestamp);\n    event storeCreated(uint sid, address owner, string name, string description, uint256 amount, string imgsrc, uint timestamp);\n    event storeUpdated(uint sid, string name, string description, string imgsrc, uint timestamp);\n    event storeproductCreated(uint spid, uint sid, uint pid, uint256 price, uint256 qty_avail, uint timestamp);\n    event storeproductUpdated(uint spid, uint sid, uint pid, uint256 price, uint256 qty_avail, uint status, uint timestamp);\n    event userCreated(uint uid, address user, string username, uint8 usertype, uint256 amount, uint8 userstatus, uint timestamp);\n    event userUpdated(uint uid, string username, uint8 usertype, uint8 userstatus, uint timestamp);\n\n    /*\n     * The following are the main functional calls that the web (client) front-end uses.\n     */\n\n    function createOrder( address _owner, uint _sid, uint _spid, uint _pid, uint256 _price, uint256 _qty) public returns (uint id)\n    {\n        id = orders.length++;\n        order storage newOrder = orders[id];\n        newOrder.sid = _sid;\n        newOrder.spid = _spid;\n        newOrder.pid = _pid;\n        newOrder.oid = id;\n        newOrder.price = _price;\n        newOrder.qty = _qty;\n        OrderOwnerMap[_owner].push(id);\n        emit orderCreated(id, newOrder.sid, newOrder.spid, newOrder.pid, newOrder.price, newOrder.qty, now);\n        return id;\n    }\n    \n    function createProduct( address _owner, string _name, string _description, string _imgsrc ) public returns (uint id)\n    {\n        id = products.length++;\n        product storage newProduct = products[id];\n        newProduct.pid = id;\n        newProduct.owner = _owner;\n        newProduct.name = _name;\n        newProduct.description = _description;\n        newProduct.imgsrc = _imgsrc;\n        ProductOwnerMap[newProduct.owner].push(id);\n        emit productCreated(id, newProduct.owner, newProduct.name, newProduct.description, newProduct.imgsrc, now);\n        return id;\n    }\n\n    function createStore( address _owner, string _name, string _description, uint256 _amount, string _imgsrc ) public returns (uint id)\n    {\n        id = stores.length++;\n        store storage newStore = stores[id];\n        newStore.owner = _owner;\n        newStore.sid = id;\n        newStore.name = _name;\n        newStore.description = _description;\n        newStore.amount = _amount;\n        newStore.imgsrc = _imgsrc;\n        StoreOwnerMap[newStore.owner].push(id);\n        emit storeCreated(id, newStore.owner, newStore.name, newStore.description, newStore.amount, newStore.imgsrc, now);\n        return id;\n    }\n    \n    function createStoreProduct( uint _sid, uint _pid, uint256 _price, uint256 _qty_avail, uint8 _status) public returns (uint id)\n    {\n        id = storeproducts.length++;\n        storeproduct storage newStoreProduct = storeproducts[id];\n        newStoreProduct.sid = _sid;\n        newStoreProduct.pid = _pid;\n        newStoreProduct.spid = id;\n        newStoreProduct.price = _price;\n        newStoreProduct.qty_avail = _qty_avail;\n        newStoreProduct.status = productStatus(_status);\n        StoreProductMap[_sid].push(id);\n        emit storeproductCreated(id, newStoreProduct.sid, newStoreProduct.pid, newStoreProduct.price, newStoreProduct.qty_avail, now);\n        return id;\n    }\n    \n    function createUser( address _user, string _username, uint8 _usertype, uint256 _amount, uint8 _userstatus) public returns (uint id)\n    {\n        if (UserOwnerMap[_user].length > 0)\n        {\n            revert(\"This address is already a registered user.\");\n        }\n        else\n        {\n            id = users.length++;\n            user storage newUser = users[id];\n            newUser.user = _user;\n            newUser.usertype = userType(_usertype);\n            newUser.username = _username;\n            newUser.uid = id;\n            newUser.amount = _amount;\n            newUser.userstatus = userStatus(_userstatus);\n            UserOwnerMap[newUser.user].push(id);\n            emit userCreated(id, newUser.user, newUser.username, (uint8)(newUser.usertype), newUser.amount, (uint8)(newUser.userstatus), now);\n            return id;\n        }\n    }\n\n    function getUser(uint idx) public view returns (uint, address, string, uint8, uint256, uint8)\n    {\n        user memory temp = users[idx];\n        return (temp.uid, temp.user, temp.username, uint8(temp.usertype), temp.amount, uint8(temp.userstatus));\n    }\n\n    // function getUserByAddress(address adr) public view returns (uint, address, string, uint8, uint256, uint8)\n    // {\n    //     uint arrayLength = users.length;\n    //     user memory temp;\n    //     temp.user = adr;\n    //     temp.username = \"N/A\";\n    //     temp.usertype = userType(2);     // Shopper\n    //     temp.amount = 0;\n    //     temp.userstatus = userStatus(1); // Disabled\n\n    //     for (uint i = 0; i < arrayLength; i++) {\n    //         user memory temp2 = users[i];\n    //         if (temp2.user == adr) {\n    //             temp = users[i];\n    //         }\n    //     }\n    //     return (temp.uid, temp.user, temp.username, uint8(temp.usertype), temp.amount, uint8(temp.userstatus));\n    // }\n\n    function getUserCount() public view returns (uint)\n    {\n        return users.length;\n    }\n\n    function getUserType(address adr) public view returns (uint8)\n    {\n        uint8 utype = 2;\n        uint arrayLength = users.length;\n\n        for (uint i = 0; i < arrayLength; i++) {\n            user memory temp = users[i];\n            if (temp.user == adr) {\n                utype = uint8(temp.usertype);\n            }\n        }\n        return (utype);\n    }\n\n    function getOrder(uint idx) public view returns ( uint, uint, uint, uint, uint256, uint256)\n    {\n        order memory temp = orders[idx];\n        return (temp.oid, temp.sid, temp.spid, temp.pid, temp.price, temp.qty);\n    } \n\n    function getOrderCount() public view returns (uint)\n    {\n        return orders.length;\n    } \n\n    function getProduct(uint idx) public view returns ( uint, address, string, string, string )\n    {\n        product memory temp = products[idx];\n        return (temp.pid, temp.owner, temp.name, temp.description, temp.imgsrc);\n    }\n\n    function getProductCount() public view returns (uint)\n    {\n        return products.length;\n    }\n    \n    function getProductCountForOwner(address _owner) public view returns (uint)\n    {\n        return ProductOwnerMap[_owner].length;\n    }\n\n    function getProductForOwner(address _owner, uint idx) public view returns ( uint, address, string, string, string )\n    {\n        if (getProductCountForOwner(_owner) >= idx)\n        {\n            return getProduct(ProductOwnerMap[_owner][idx]);\n        }\n        else\n        {\n            revert(\"product index does not exist for this owner!\");\n        }\n    }\n\n    function getStore(uint idx) public view returns (uint, address, string, string, uint256, string)\n    {\n        store memory temp = stores[idx];\n        return (temp.sid, temp.owner, temp.name, temp.description, temp.amount, temp.imgsrc);\n    }\n\n    function getStoreCount() public view returns (uint)\n    {\n        return stores.length;\n    }\n\n    function getStoreCountForOwner(address _owner) public view returns (uint)\n    {\n        return StoreOwnerMap[_owner].length;\n    }\n\n    function getStoreForOwner(address _owner, uint idx) public view returns (uint, address, string, string, uint256, string)\n    {\n        if (getStoreCountForOwner(_owner) >= idx)\n        {\n            return getStore(StoreOwnerMap[_owner][idx]);\n        }\n        else\n        {\n            revert(\"store index does not exist for this owner!\");\n        }\n    }\n\n    function getStoreProduct(uint idx) public view returns ( uint, uint, uint, uint256, uint256, uint8)\n    {\n        storeproduct memory temp = storeproducts[idx];\n        return (temp.spid, temp.sid, temp.pid, temp.price, temp.qty_avail, uint8(temp.status));\n    }  \n\n    function getStoreProductCount() public view returns (uint)\n    {\n        return storeproducts.length;\n    }\n\n    function getStoreProductCountForStore(uint _sid) public view returns (uint)\n    {\n        return StoreProductMap[_sid].length;\n    }\n\n    // get the Store Product for the store and index position\n    function getStoreProductForStore(uint _sid, uint _idx) public view returns ( uint, uint, uint, uint256, uint256, uint)\n    {\n        if (getStoreProductCountForStore(_sid) >= _idx)\n        {\n            return getStoreProduct(StoreProductMap[_sid][_idx]);\n        }\n        else\n        {\n            revert(\"store product index does not exist for this store!\");\n        }\n    }  \n\n    function register(address _user, string _username) public returns (uint id)\n    {\n        return createUser(_user, _username, 1, 0, 0);\n    }\n\n    function sellProduct(uint sid, uint spid, uint pid, uint qty) public payable returns (uint)\n    {\n        // ensure store product id is within array boundary \n        require(spid >= 0 && spid <= storeproducts.length, \"store product id does not exist\");\n        // get store product\n        storeproduct memory temp = storeproducts[spid];\n        // ensure store id matches \n        require (temp.sid == sid, \"store id does not match\");\n        // ensure at least 1 available \n        require (temp.qty_avail > 0, \"insufficient inventory of store product\");\n        // calculate transaction amount\n        uint transAmount = qty * storeproducts[spid].price;\n        // ensure buyer has sufficient funds \n        require (balance[msg.sender] >= transAmount, \"buyer has insufficient funds\");\n        // decrease inventory by 1\n        storeproducts[spid].qty_avail -= 1;\n        // decrease buyers wallet by transaction amount\n        balance[msg.sender].sub(transAmount);\n        // increase store amount by transaction amount\n        stores[sid].amount.add(transAmount);\n        // create the order\n        return createOrder(msg.sender, sid, spid, pid, temp.price, qty);\n    }                       \n\n    function updateProduct( uint _pid, string _name, string _description, string _imgsrc)\n        public returns (bool success)\n    {\n        /* Change to description and imgsrc only */\n        products[_pid].description = _description;\n        products[_pid].imgsrc = _imgsrc;\n        emit productUpdated(_pid, _name, _description, _imgsrc, now);\n        return true;\n    }\n\n    function updateStore( uint _sid, string _storename, string _description, string _imgsrc)\n        public returns (bool success)\n    {\n        /* Change to description only */\n        stores[_sid].description = _description;\n        stores[_sid].imgsrc = _imgsrc;\n        emit storeUpdated(_sid, _storename, _description, _imgsrc, now);\n        return true;\n    }\n\n    function updateStoreProduct( uint _spid, uint _sid, uint _pid, uint256 _price, uint256 _qty_avail, uint8 _status)\n        public returns (bool success)\n    {\n        /* Only allow changes to price, qty_avail, and status */\n        require(storeproducts[_spid].sid == _sid, \"store id mismatch during updateStoreProduct()\");\n        require(storeproducts[_spid].pid == _pid, \"product id mismatch during updateStoreProduct()\");\n        storeproducts[_spid].price = _price;\n        storeproducts[_spid].qty_avail = _qty_avail;\n        storeproducts[_spid].status = productStatus(_status);\n        emit storeproductUpdated(_spid, _sid, _pid, _price, _qty_avail, (uint8)(_status), now);\n        return true;\n    }\n    \n    function updateUser( uint _uid, string _username, uint8 _usertype, uint8 _userstatus)\n        public returns (bool success)\n    {\n        /* Only allow changes to usertype and userstatus */\n        users[_uid].usertype = userType(_usertype);\n        users[_uid].userstatus = userStatus(_usertype);\n        emit userUpdated(_uid, _username, (uint8)(_usertype), (uint8)(_userstatus), now);\n        return true;\n    }\n\n    function withdraw(uint sid, uint256 amount) public payable returns (bool success)\n    {\n        // ensure message is from store owner\n        require(stores[sid].owner == msg.sender, \"must be owner of store\");\n        // ensure store has requested funds\n        require(stores[sid].amount >= amount, \"amount greater than store value\");\n        // decrease stores wallet by transaction amount\n        stores[sid].amount.sub(amount);\n        // increase callers wallet by transaction amount\n        balance[msg.sender].add(amount);\n        return true;\n    }\n\n    // See: https://github.com/OpenZeppelin/openzeppelin-solidity/ \n    // for details regarding these mathematical functions\n    function mul(uint256 _a, uint256 _b) internal pure returns (uint256 c) {\n        if (_a == 0) {\n            return 0;\n        }\n        c = _a * _b;\n        assert(c / _a == _b);\n        return c;\n    }\n\n    function div(uint256 _a, uint256 _b) internal pure returns (uint256) {\n        return _a / _b;\n    }\n\n    function sub(uint256 _a, uint256 _b) internal pure returns (uint256) {\n        assert(_b <= _a);\n        return _a - _b;\n    }\n\n    function add(uint256 _a, uint256 _b) internal pure returns (uint256 c) {\n        c = _a + _b;\n        assert(c >= _a);\n        return c;\n    }\n}",
  "sourcePath": "/Users/pallen/wip-consensys/CA2018DP-OnlineMarketplace/contracts/MarketPlace.sol",
  "compiler": {
    "name": "solc",
    "version": "0.4.24+commit.e67f0147.Emscripten.clang"
  },
  "schemaVersion": "2.0.1",
  "updatedAt": "2018-08-27T18:34:27.048Z"
}